{
  "_format": "hh-sol-artifact-1",
  "contractName": "Lock",
  "sourceName": "contracts/Lock.sol",
  "abi": [
    {
      "inputs": [
        {
          "internalType": "uint256",
          "name": "_maturityDate",
          "type": "uint256"
        },
        {
          "internalType": "string",
          "name": "_ownerName",
          "type": "string"
        },
        {
          "internalType": "uint256",
          "name": "_faceValue",
          "type": "uint256"
        }
      ],
      "stateMutability": "payable",
      "type": "constructor"
    },
    {
      "anonymous": false,
      "inputs": [
        {
          "indexed": false,
          "internalType": "string",
          "name": "newOwnerName",
          "type": "string"
        }
      ],
      "name": "OwnerNameUpdated",
      "type": "event"
    },
    {
      "anonymous": false,
      "inputs": [
        {
          "indexed": false,
          "internalType": "uint256",
          "name": "newUnlockTime",
          "type": "uint256"
        }
      ],
      "name": "UnlockTimeUpdated",
      "type": "event"
    },
    {
      "anonymous": false,
      "inputs": [
        {
          "indexed": false,
          "internalType": "uint256",
          "name": "amount",
          "type": "uint256"
        },
        {
          "indexed": false,
          "internalType": "uint256",
          "name": "when",
          "type": "uint256"
        }
      ],
      "name": "Withdrawal",
      "type": "event"
    },
    {
      "inputs": [],
      "name": "faceValue",
      "outputs": [
        {
          "internalType": "uint256",
          "name": "",
          "type": "uint256"
        }
      ],
      "stateMutability": "view",
      "type": "function"
    },
    {
      "inputs": [],
      "name": "maturityDate",
      "outputs": [
        {
          "internalType": "uint256",
          "name": "",
          "type": "uint256"
        }
      ],
      "stateMutability": "view",
      "type": "function"
    },
    {
      "inputs": [],
      "name": "owner",
      "outputs": [
        {
          "internalType": "address payable",
          "name": "",
          "type": "address"
        }
      ],
      "stateMutability": "view",
      "type": "function"
    },
    {
      "inputs": [],
      "name": "ownerName",
      "outputs": [
        {
          "internalType": "string",
          "name": "",
          "type": "string"
        }
      ],
      "stateMutability": "view",
      "type": "function"
    },
    {
      "inputs": [
        {
          "internalType": "uint256",
          "name": "newUnlockTime",
          "type": "uint256"
        }
      ],
      "name": "setNewUnlockTime",
      "outputs": [],
      "stateMutability": "nonpayable",
      "type": "function"
    },
    {
      "inputs": [],
      "name": "withdraw",
      "outputs": [],
      "stateMutability": "nonpayable",
      "type": "function"
    }
  ],
  "bytecode": "0x608060405260405162000c9838038062000c98833981810160405281019062000029919062000367565b8242106200006e576040517f08c379a0000000000000000000000000000000000000000000000000000000008152600401620000659062000469565b60405180910390fd5b8260008190555033600160006101000a81548173ffffffffffffffffffffffffffffffffffffffff021916908373ffffffffffffffffffffffffffffffffffffffff1602179055508160029080519060200190620000ce929190620000df565b5080600381905550505050620004f0565b828054620000ed90620004ba565b90600052602060002090601f0160209004810192826200011157600085556200015d565b82601f106200012c57805160ff19168380011785556200015d565b828001600101855582156200015d579182015b828111156200015c5782518255916020019190600101906200013f565b5b5090506200016c919062000170565b5090565b5b808211156200018b57600081600090555060010162000171565b5090565b6000604051905090565b600080fd5b600080fd5b6000819050919050565b620001b881620001a3565b8114620001c457600080fd5b50565b600081519050620001d881620001ad565b92915050565b600080fd5b600080fd5b6000601f19601f8301169050919050565b7f4e487b7100000000000000000000000000000000000000000000000000000000600052604160045260246000fd5b6200023382620001e8565b810181811067ffffffffffffffff82111715620002555762000254620001f9565b5b80604052505050565b60006200026a6200018f565b905062000278828262000228565b919050565b600067ffffffffffffffff8211156200029b576200029a620001f9565b5b620002a682620001e8565b9050602081019050919050565b60005b83811015620002d3578082015181840152602081019050620002b6565b83811115620002e3576000848401525b50505050565b600062000300620002fa846200027d565b6200025e565b9050828152602081018484840111156200031f576200031e620001e3565b5b6200032c848285620002b3565b509392505050565b600082601f8301126200034c576200034b620001de565b5b81516200035e848260208601620002e9565b91505092915050565b60008060006060848603121562000383576200038262000199565b5b60006200039386828701620001c7565b935050602084015167ffffffffffffffff811115620003b757620003b66200019e565b5b620003c58682870162000334565b9250506040620003d886828701620001c7565b9150509250925092565b600082825260208201905092915050565b7f556e6c6f636b2074696d652073686f756c6420626520696e207468652066757460008201527f7572650000000000000000000000000000000000000000000000000000000000602082015250565b600062000451602383620003e2565b91506200045e82620003f3565b604082019050919050565b60006020820190508181036000830152620004848162000442565b9050919050565b7f4e487b7100000000000000000000000000000000000000000000000000000000600052602260045260246000fd5b60006002820490506001821680620004d357607f821691505b60208210811415620004ea57620004e96200048b565b5b50919050565b61079880620005006000396000f3fe608060405234801561001057600080fd5b50600436106100625760003560e01c80633ccfd60b1461006757806344fd9caa1461007157806365ac23201461008f5780638da5cb5b146100ad578063d59624b4146100cb578063e20c6466146100e9575b600080fd5b61006f610105565b005b61007961027e565b60405161008691906103de565b60405180910390f35b610097610284565b6040516100a49190610492565b60405180910390f35b6100b5610312565b6040516100c291906104f5565b60405180910390f35b6100d3610338565b6040516100e091906103de565b60405180910390f35b61010360048036038101906100fe9190610541565b61033e565b005b60005442101561014a576040517f08c379a0000000000000000000000000000000000000000000000000000000008152600401610141906105ba565b60405180910390fd5b600160009054906101000a900473ffffffffffffffffffffffffffffffffffffffff1673ffffffffffffffffffffffffffffffffffffffff163373ffffffffffffffffffffffffffffffffffffffff16146101da576040517f08c379a00000000000000000000000000000000000000000000000000000000081526004016101d190610626565b60405180910390fd5b7fbf2ed60bd5b5965d685680c01195c9514e4382e28e3a5a2d2d5244bf59411b93474260405161020b929190610646565b60405180910390a1600160009054906101000a900473ffffffffffffffffffffffffffffffffffffffff1673ffffffffffffffffffffffffffffffffffffffff166108fc479081150290604051600060405180830381858888f1935050505015801561027b573d6000803e3d6000fd5b50565b60035481565b600280546102919061069e565b80601f01602080910402602001604051908101604052809291908181526020018280546102bd9061069e565b801561030a5780601f106102df5761010080835404028352916020019161030a565b820191906000526020600020905b8154815290600101906020018083116102ed57829003601f168201915b505050505081565b600160009054906101000a900473ffffffffffffffffffffffffffffffffffffffff1681565b60005481565b6000548111610382576040517f08c379a000000000000000000000000000000000000000000000000000000000815260040161037990610742565b60405180910390fd5b806000819055507f6669a6c779a56629103733bcba993d66b30b061559b41f3c64bd2661cd9ea3c16000546040516103ba91906103de565b60405180910390a150565b6000819050919050565b6103d8816103c5565b82525050565b60006020820190506103f360008301846103cf565b92915050565b600081519050919050565b600082825260208201905092915050565b60005b83811015610433578082015181840152602081019050610418565b83811115610442576000848401525b50505050565b6000601f19601f8301169050919050565b6000610464826103f9565b61046e8185610404565b935061047e818560208601610415565b61048781610448565b840191505092915050565b600060208201905081810360008301526104ac8184610459565b905092915050565b600073ffffffffffffffffffffffffffffffffffffffff82169050919050565b60006104df826104b4565b9050919050565b6104ef816104d4565b82525050565b600060208201905061050a60008301846104e6565b92915050565b600080fd5b61051e816103c5565b811461052957600080fd5b50565b60008135905061053b81610515565b92915050565b60006020828403121561055757610556610510565b5b60006105658482850161052c565b91505092915050565b7f596f752063616e27742077697468647261772079657400000000000000000000600082015250565b60006105a4601683610404565b91506105af8261056e565b602082019050919050565b600060208201905081810360008301526105d381610597565b9050919050565b7f596f75206172656e277420746865206f776e6572000000000000000000000000600082015250565b6000610610601483610404565b915061061b826105da565b602082019050919050565b6000602082019050818103600083015261063f81610603565b9050919050565b600060408201905061065b60008301856103cf565b61066860208301846103cf565b9392505050565b7f4e487b7100000000000000000000000000000000000000000000000000000000600052602260045260246000fd5b600060028204905060018216806106b657607f821691505b602082108114156106ca576106c961066f565b5b50919050565b7f4e657720756e6c6f636b2074696d652073686f756c642062652067726561746560008201527f72207468616e2063757272656e7420756e6c6f636b2074696d65000000000000602082015250565b600061072c603a83610404565b9150610737826106d0565b604082019050919050565b6000602082019050818103600083015261075b8161071f565b905091905056fea26469706673582212200cd85907268955c636bda86845be71f7f4e790763e824b82ee19d904a8f5db1364736f6c63430008090033",
  "linkReferences": {},
  "deployedLinkReferences": {}
}