{
  "_format": "hh-sol-artifact-1",
  "contractName": "Lock",
  "sourceName": "contracts/Lock.sol",
  "abi": [
    {
      "inputs": [
        {
          "internalType": "uint256",
          "name": "_unlockTime",
          "type": "uint256"
        },
        {
          "internalType": "string",
          "name": "_ownerName",
          "type": "string"
        }
      ],
      "stateMutability": "payable",
      "type": "constructor"
    },
    {
      "anonymous": false,
      "inputs": [
        {
          "indexed": false,
          "internalType": "string",
          "name": "newOwnerName",
          "type": "string"
        }
      ],
      "name": "OwnerNameUpdated",
      "type": "event"
    },
    {
      "anonymous": false,
      "inputs": [
        {
          "indexed": false,
          "internalType": "uint256",
          "name": "newUnlockTime",
          "type": "uint256"
        }
      ],
      "name": "UnlockTimeUpdated",
      "type": "event"
    },
    {
      "anonymous": false,
      "inputs": [
        {
          "indexed": false,
          "internalType": "uint256",
          "name": "amount",
          "type": "uint256"
        },
        {
          "indexed": false,
          "internalType": "uint256",
          "name": "when",
          "type": "uint256"
        }
      ],
      "name": "Withdrawal",
      "type": "event"
    },
    {
      "inputs": [],
      "name": "owner",
      "outputs": [
        {
          "internalType": "address payable",
          "name": "",
          "type": "address"
        }
      ],
      "stateMutability": "view",
      "type": "function"
    },
    {
      "inputs": [],
      "name": "ownerName",
      "outputs": [
        {
          "internalType": "string",
          "name": "",
          "type": "string"
        }
      ],
      "stateMutability": "view",
      "type": "function"
    },
    {
      "inputs": [
        {
          "internalType": "uint256",
          "name": "newUnlockTime",
          "type": "uint256"
        }
      ],
      "name": "setNewUnlockTime",
      "outputs": [],
      "stateMutability": "nonpayable",
      "type": "function"
    },
    {
      "inputs": [
        {
          "internalType": "string",
          "name": "newOwnerName",
          "type": "string"
        }
      ],
      "name": "setOwnerName",
      "outputs": [],
      "stateMutability": "nonpayable",
      "type": "function"
    },
    {
      "inputs": [],
      "name": "unlockTime",
      "outputs": [
        {
          "internalType": "uint256",
          "name": "",
          "type": "uint256"
        }
      ],
      "stateMutability": "view",
      "type": "function"
    },
    {
      "inputs": [],
      "name": "withdraw",
      "outputs": [],
      "stateMutability": "nonpayable",
      "type": "function"
    }
  ],
  "bytecode": "0x608060405260405162000fac38038062000fac83398181016040528101906200002991906200035f565b8142106200006e576040517f08c379a000000000000000000000000000000000000000000000000000000000815260040162000065906200044c565b60405180910390fd5b8160008190555033600160006101000a81548173ffffffffffffffffffffffffffffffffffffffff021916908373ffffffffffffffffffffffffffffffffffffffff1602179055508060029080519060200190620000ce929190620000d7565b505050620004d3565b828054620000e5906200049d565b90600052602060002090601f01602090048101928262000109576000855562000155565b82601f106200012457805160ff191683800117855562000155565b8280016001018555821562000155579182015b828111156200015457825182559160200191906001019062000137565b5b50905062000164919062000168565b5090565b5b808211156200018357600081600090555060010162000169565b5090565b6000604051905090565b600080fd5b600080fd5b6000819050919050565b620001b0816200019b565b8114620001bc57600080fd5b50565b600081519050620001d081620001a5565b92915050565b600080fd5b600080fd5b6000601f19601f8301169050919050565b7f4e487b7100000000000000000000000000000000000000000000000000000000600052604160045260246000fd5b6200022b82620001e0565b810181811067ffffffffffffffff821117156200024d576200024c620001f1565b5b80604052505050565b60006200026262000187565b905062000270828262000220565b919050565b600067ffffffffffffffff821115620002935762000292620001f1565b5b6200029e82620001e0565b9050602081019050919050565b60005b83811015620002cb578082015181840152602081019050620002ae565b83811115620002db576000848401525b50505050565b6000620002f8620002f28462000275565b62000256565b905082815260208101848484011115620003175762000316620001db565b5b62000324848285620002ab565b509392505050565b600082601f830112620003445762000343620001d6565b5b815162000356848260208601620002e1565b91505092915050565b6000806040838503121562000379576200037862000191565b5b60006200038985828601620001bf565b925050602083015167ffffffffffffffff811115620003ad57620003ac62000196565b5b620003bb858286016200032c565b9150509250929050565b600082825260208201905092915050565b7f556e6c6f636b2074696d652073686f756c6420626520696e207468652066757460008201527f7572650000000000000000000000000000000000000000000000000000000000602082015250565b600062000434602383620003c5565b91506200044182620003d6565b604082019050919050565b60006020820190508181036000830152620004678162000425565b9050919050565b7f4e487b7100000000000000000000000000000000000000000000000000000000600052602260045260246000fd5b60006002820490506001821680620004b657607f821691505b60208210811415620004cd57620004cc6200046e565b5b50919050565b610ac980620004e36000396000f3fe608060405234801561001057600080fd5b50600436106100625760003560e01c8063251c1aa314610067578063295795e2146100855780633ccfd60b146100a157806365ac2320146100ab5780638da5cb5b146100c9578063e20c6466146100e7575b600080fd5b61006f610103565b60405161007c91906104cb565b60405180910390f35b61009f600480360381019061009a9190610640565b610109565b005b6100a961015b565b005b6100b36102d4565b6040516100c09190610711565b60405180910390f35b6100d1610362565b6040516100de9190610774565b60405180910390f35b61010160048036038101906100fc91906107bb565b610388565b005b60005481565b806002908051906020019061011f92919061040f565b507fd5a937a1c115bb97be9cc366e0bd9db3f894cdec6f5c99e006789ff61047a946600260405161015091906108de565b60405180910390a150565b6000544210156101a0576040517f08c379a00000000000000000000000000000000000000000000000000000000081526004016101979061094c565b60405180910390fd5b600160009054906101000a900473ffffffffffffffffffffffffffffffffffffffff1673ffffffffffffffffffffffffffffffffffffffff163373ffffffffffffffffffffffffffffffffffffffff1614610230576040517f08c379a0000000000000000000000000000000000000000000000000000000008152600401610227906109b8565b60405180910390fd5b7fbf2ed60bd5b5965d685680c01195c9514e4382e28e3a5a2d2d5244bf59411b9347426040516102619291906109d8565b60405180910390a1600160009054906101000a900473ffffffffffffffffffffffffffffffffffffffff1673ffffffffffffffffffffffffffffffffffffffff166108fc479081150290604051600060405180830381858888f193505050501580156102d1573d6000803e3d6000fd5b50565b600280546102e190610817565b80601f016020809104026020016040519081016040528092919081815260200182805461030d90610817565b801561035a5780601f1061032f5761010080835404028352916020019161035a565b820191906000526020600020905b81548152906001019060200180831161033d57829003601f168201915b505050505081565b600160009054906101000a900473ffffffffffffffffffffffffffffffffffffffff1681565b60005481116103cc576040517f08c379a00000000000000000000000000000000000000000000000000000000081526004016103c390610a73565b60405180910390fd5b806000819055507f6669a6c779a56629103733bcba993d66b30b061559b41f3c64bd2661cd9ea3c160005460405161040491906104cb565b60405180910390a150565b82805461041b90610817565b90600052602060002090601f01602090048101928261043d5760008555610484565b82601f1061045657805160ff1916838001178555610484565b82800160010185558215610484579182015b82811115610483578251825591602001919060010190610468565b5b5090506104919190610495565b5090565b5b808211156104ae576000816000905550600101610496565b5090565b6000819050919050565b6104c5816104b2565b82525050565b60006020820190506104e060008301846104bc565b92915050565b6000604051905090565b600080fd5b600080fd5b600080fd5b600080fd5b6000601f19601f8301169050919050565b7f4e487b7100000000000000000000000000000000000000000000000000000000600052604160045260246000fd5b61054d82610504565b810181811067ffffffffffffffff8211171561056c5761056b610515565b5b80604052505050565b600061057f6104e6565b905061058b8282610544565b919050565b600067ffffffffffffffff8211156105ab576105aa610515565b5b6105b482610504565b9050602081019050919050565b82818337600083830152505050565b60006105e36105de84610590565b610575565b9050828152602081018484840111156105ff576105fe6104ff565b5b61060a8482856105c1565b509392505050565b600082601f830112610627576106266104fa565b5b81356106378482602086016105d0565b91505092915050565b600060208284031215610656576106556104f0565b5b600082013567ffffffffffffffff811115610674576106736104f5565b5b61068084828501610612565b91505092915050565b600081519050919050565b600082825260208201905092915050565b60005b838110156106c35780820151818401526020810190506106a8565b838111156106d2576000848401525b50505050565b60006106e382610689565b6106ed8185610694565b93506106fd8185602086016106a5565b61070681610504565b840191505092915050565b6000602082019050818103600083015261072b81846106d8565b905092915050565b600073ffffffffffffffffffffffffffffffffffffffff82169050919050565b600061075e82610733565b9050919050565b61076e81610753565b82525050565b60006020820190506107896000830184610765565b92915050565b610798816104b2565b81146107a357600080fd5b50565b6000813590506107b58161078f565b92915050565b6000602082840312156107d1576107d06104f0565b5b60006107df848285016107a6565b91505092915050565b7f4e487b7100000000000000000000000000000000000000000000000000000000600052602260045260246000fd5b6000600282049050600182168061082f57607f821691505b60208210811415610843576108426107e8565b5b50919050565b60008190508160005260206000209050919050565b6000815461086b81610817565b6108758186610694565b9450600182166000811461089057600181146108a2576108d5565b60ff19831686526020860193506108d5565b6108ab85610849565b60005b838110156108cd578154818901526001820191506020810190506108ae565b808801955050505b50505092915050565b600060208201905081810360008301526108f8818461085e565b905092915050565b7f596f752063616e27742077697468647261772079657400000000000000000000600082015250565b6000610936601683610694565b915061094182610900565b602082019050919050565b6000602082019050818103600083015261096581610929565b9050919050565b7f596f75206172656e277420746865206f776e6572000000000000000000000000600082015250565b60006109a2601483610694565b91506109ad8261096c565b602082019050919050565b600060208201905081810360008301526109d181610995565b9050919050565b60006040820190506109ed60008301856104bc565b6109fa60208301846104bc565b9392505050565b7f4e657720756e6c6f636b2074696d652073686f756c642062652067726561746560008201527f72207468616e2063757272656e7420756e6c6f636b2074696d65000000000000602082015250565b6000610a5d603a83610694565b9150610a6882610a01565b604082019050919050565b60006020820190508181036000830152610a8c81610a50565b905091905056fea26469706673582212204d60e951a25b38ce4c66442889f79f6b6b2f80b9f0adc971d057d4b434cd0bad64736f6c63430008090033",
  "linkReferences": {},
  "deployedLinkReferences": {}
}