{
  "_format": "hh-sol-artifact-1",
  "contractName": "Lock",
  "sourceName": "contracts/Lock.sol",
  "abi": [
    {
      "inputs": [
        {
          "internalType": "uint256",
          "name": "_maturityDate",
          "type": "uint256"
        },
        {
          "internalType": "string",
          "name": "_ownerName",
          "type": "string"
        },
        {
          "internalType": "string",
          "name": "_issuerName",
          "type": "string"
        },
        {
          "internalType": "uint256",
          "name": "_faceValue",
          "type": "uint256"
        },
        {
          "internalType": "enum Lock.PaymentFrequency",
          "name": "_paymentFrequency",
          "type": "uint8"
        },
        {
          "internalType": "uint256",
          "name": "_interestRate",
          "type": "uint256"
        }
      ],
      "stateMutability": "payable",
      "type": "constructor"
    },
    {
      "anonymous": false,
      "inputs": [
        {
          "indexed": false,
          "internalType": "string",
          "name": "newOwnerName",
          "type": "string"
        }
      ],
      "name": "OwnerNameUpdated",
      "type": "event"
    },
    {
      "anonymous": false,
      "inputs": [
        {
          "indexed": false,
          "internalType": "uint256",
          "name": "newUnlockTime",
          "type": "uint256"
        }
      ],
      "name": "UnlockTimeUpdated",
      "type": "event"
    },
    {
      "anonymous": false,
      "inputs": [
        {
          "indexed": false,
          "internalType": "uint256",
          "name": "amount",
          "type": "uint256"
        },
        {
          "indexed": false,
          "internalType": "uint256",
          "name": "when",
          "type": "uint256"
        }
      ],
      "name": "Withdrawal",
      "type": "event"
    },
    {
      "inputs": [],
      "name": "faceValue",
      "outputs": [
        {
          "internalType": "uint256",
          "name": "",
          "type": "uint256"
        }
      ],
      "stateMutability": "view",
      "type": "function"
    },
    {
      "inputs": [],
      "name": "interestRate",
      "outputs": [
        {
          "internalType": "uint256",
          "name": "",
          "type": "uint256"
        }
      ],
      "stateMutability": "view",
      "type": "function"
    },
    {
      "inputs": [],
      "name": "issuerName",
      "outputs": [
        {
          "internalType": "string",
          "name": "",
          "type": "string"
        }
      ],
      "stateMutability": "view",
      "type": "function"
    },
    {
      "inputs": [],
      "name": "maturityDate",
      "outputs": [
        {
          "internalType": "uint256",
          "name": "",
          "type": "uint256"
        }
      ],
      "stateMutability": "view",
      "type": "function"
    },
    {
      "inputs": [],
      "name": "owner",
      "outputs": [
        {
          "internalType": "address payable",
          "name": "",
          "type": "address"
        }
      ],
      "stateMutability": "view",
      "type": "function"
    },
    {
      "inputs": [],
      "name": "ownerName",
      "outputs": [
        {
          "internalType": "string",
          "name": "",
          "type": "string"
        }
      ],
      "stateMutability": "view",
      "type": "function"
    },
    {
      "inputs": [],
      "name": "paymentFrequency",
      "outputs": [
        {
          "internalType": "enum Lock.PaymentFrequency",
          "name": "",
          "type": "uint8"
        }
      ],
      "stateMutability": "view",
      "type": "function"
    },
    {
      "inputs": [
        {
          "internalType": "uint256",
          "name": "newUnlockTime",
          "type": "uint256"
        }
      ],
      "name": "setNewUnlockTime",
      "outputs": [],
      "stateMutability": "nonpayable",
      "type": "function"
    },
    {
      "inputs": [],
      "name": "withdraw",
      "outputs": [],
      "stateMutability": "payable",
      "type": "function"
    }
  ],
  "bytecode": "0x608060405260405162001026380380620010268339818101604052810190620000299190620003df565b8542106200006e576040517f08c379a0000000000000000000000000000000000000000000000000000000008152600401620000659062000540565b60405180910390fd5b8560008190555033600160006101000a81548173ffffffffffffffffffffffffffffffffffffffff021916908373ffffffffffffffffffffffffffffffffffffffff1602179055508460029080519060200190620000ce9291906200012f565b508360039080519060200190620000e79291906200012f565b508260048190555081600560006101000a81548160ff0219169083600181111562000117576200011662000562565b5b021790555080600681905550505050505050620005f6565b8280546200013d90620005c0565b90600052602060002090601f016020900481019282620001615760008555620001ad565b82601f106200017c57805160ff1916838001178555620001ad565b82800160010185558215620001ad579182015b82811115620001ac5782518255916020019190600101906200018f565b5b509050620001bc9190620001c0565b5090565b5b80821115620001db576000816000905550600101620001c1565b5090565b6000604051905090565b600080fd5b600080fd5b6000819050919050565b6200020881620001f3565b81146200021457600080fd5b50565b6000815190506200022881620001fd565b92915050565b600080fd5b600080fd5b6000601f19601f8301169050919050565b7f4e487b7100000000000000000000000000000000000000000000000000000000600052604160045260246000fd5b620002838262000238565b810181811067ffffffffffffffff82111715620002a557620002a462000249565b5b80604052505050565b6000620002ba620001df565b9050620002c8828262000278565b919050565b600067ffffffffffffffff821115620002eb57620002ea62000249565b5b620002f68262000238565b9050602081019050919050565b60005b838110156200032357808201518184015260208101905062000306565b8381111562000333576000848401525b50505050565b6000620003506200034a84620002cd565b620002ae565b9050828152602081018484840111156200036f576200036e62000233565b5b6200037c84828562000303565b509392505050565b600082601f8301126200039c576200039b6200022e565b5b8151620003ae84826020860162000339565b91505092915050565b60028110620003c557600080fd5b50565b600081519050620003d981620003b7565b92915050565b60008060008060008060c08789031215620003ff57620003fe620001e9565b5b60006200040f89828a0162000217565b965050602087015167ffffffffffffffff811115620004335762000432620001ee565b5b6200044189828a0162000384565b955050604087015167ffffffffffffffff811115620004655762000464620001ee565b5b6200047389828a0162000384565b94505060606200048689828a0162000217565b93505060806200049989828a01620003c8565b92505060a0620004ac89828a0162000217565b9150509295509295509295565b600082825260208201905092915050565b7f556e6c6f636b2074696d652073686f756c6420626520696e207468652066757460008201527f7572650000000000000000000000000000000000000000000000000000000000602082015250565b600062000528602383620004b9565b91506200053582620004ca565b604082019050919050565b600060208201905081810360008301526200055b8162000519565b9050919050565b7f4e487b7100000000000000000000000000000000000000000000000000000000600052602160045260246000fd5b7f4e487b7100000000000000000000000000000000000000000000000000000000600052602260045260246000fd5b60006002820490506001821680620005d957607f821691505b60208210811415620005f057620005ef62000591565b5b50919050565b610a2080620006066000396000f3fe6080604052600436106100865760003560e01c80637c3a00fd116100595780637c3a00fd146101165780638da5cb5b146101415780638e5893151461016c578063d59624b414610197578063e20c6466146101c257610086565b80632e9868f81461008b5780633ccfd60b146100b657806344fd9caa146100c057806365ac2320146100eb575b600080fd5b34801561009757600080fd5b506100a06101eb565b6040516100ad919061060e565b60405180910390f35b6100be610279565b005b3480156100cc57600080fd5b506100d5610415565b6040516100e29190610649565b60405180910390f35b3480156100f757600080fd5b5061010061041b565b60405161010d919061060e565b60405180910390f35b34801561012257600080fd5b5061012b6104a9565b6040516101389190610649565b60405180910390f35b34801561014d57600080fd5b506101566104af565b60405161016391906106a5565b60405180910390f35b34801561017857600080fd5b506101816104d5565b60405161018e9190610737565b60405180910390f35b3480156101a357600080fd5b506101ac6104e8565b6040516101b99190610649565b60405180910390f35b3480156101ce57600080fd5b506101e960048036038101906101e49190610783565b6104ee565b005b600380546101f8906107df565b80601f0160208091040260200160405190810160405280929190818152602001828054610224906107df565b80156102715780601f1061024657610100808354040283529160200191610271565b820191906000526020600020905b81548152906001019060200180831161025457829003601f168201915b505050505081565b600160009054906101000a900473ffffffffffffffffffffffffffffffffffffffff1673ffffffffffffffffffffffffffffffffffffffff163373ffffffffffffffffffffffffffffffffffffffff1614610309576040517f08c379a00000000000000000000000000000000000000000000000000000000081526004016103009061085d565b60405180910390fd5b7fbf2ed60bd5b5965d685680c01195c9514e4382e28e3a5a2d2d5244bf59411b93474260405161033a92919061087d565b60405180910390a16000600160009054906101000a900473ffffffffffffffffffffffffffffffffffffffff1673ffffffffffffffffffffffffffffffffffffffff1660045460405161038c906108d7565b60006040518083038185875af1925050503d80600081146103c9576040519150601f19603f3d011682016040523d82523d6000602084013e6103ce565b606091505b5050905080610412576040517f08c379a000000000000000000000000000000000000000000000000000000000815260040161040990610938565b60405180910390fd5b50565b60045481565b60028054610428906107df565b80601f0160208091040260200160405190810160405280929190818152602001828054610454906107df565b80156104a15780601f10610476576101008083540402835291602001916104a1565b820191906000526020600020905b81548152906001019060200180831161048457829003601f168201915b505050505081565b60065481565b600160009054906101000a900473ffffffffffffffffffffffffffffffffffffffff1681565b600560009054906101000a900460ff1681565b60005481565b6000548111610532576040517f08c379a0000000000000000000000000000000000000000000000000000000008152600401610529906109ca565b60405180910390fd5b806000819055507f6669a6c779a56629103733bcba993d66b30b061559b41f3c64bd2661cd9ea3c160005460405161056a9190610649565b60405180910390a150565b600081519050919050565b600082825260208201905092915050565b60005b838110156105af578082015181840152602081019050610594565b838111156105be576000848401525b50505050565b6000601f19601f8301169050919050565b60006105e082610575565b6105ea8185610580565b93506105fa818560208601610591565b610603816105c4565b840191505092915050565b6000602082019050818103600083015261062881846105d5565b905092915050565b6000819050919050565b61064381610630565b82525050565b600060208201905061065e600083018461063a565b92915050565b600073ffffffffffffffffffffffffffffffffffffffff82169050919050565b600061068f82610664565b9050919050565b61069f81610684565b82525050565b60006020820190506106ba6000830184610696565b92915050565b7f4e487b7100000000000000000000000000000000000000000000000000000000600052602160045260246000fd5b60028110610700576106ff6106c0565b5b50565b6000819050610711826106ef565b919050565b600061072182610703565b9050919050565b61073181610716565b82525050565b600060208201905061074c6000830184610728565b92915050565b600080fd5b61076081610630565b811461076b57600080fd5b50565b60008135905061077d81610757565b92915050565b60006020828403121561079957610798610752565b5b60006107a78482850161076e565b91505092915050565b7f4e487b7100000000000000000000000000000000000000000000000000000000600052602260045260246000fd5b600060028204905060018216806107f757607f821691505b6020821081141561080b5761080a6107b0565b5b50919050565b7f596f75206172656e277420746865206f776e6572000000000000000000000000600082015250565b6000610847601483610580565b915061085282610811565b602082019050919050565b600060208201905081810360008301526108768161083a565b9050919050565b6000604082019050610892600083018561063a565b61089f602083018461063a565b9392505050565b600081905092915050565b50565b60006108c16000836108a6565b91506108cc826108b1565b600082019050919050565b60006108e2826108b4565b9150819050919050565b7f5061796d656e74206661696c6564000000000000000000000000000000000000600082015250565b6000610922600e83610580565b915061092d826108ec565b602082019050919050565b6000602082019050818103600083015261095181610915565b9050919050565b7f4e657720756e6c6f636b2074696d652073686f756c642062652067726561746560008201527f72207468616e2063757272656e7420756e6c6f636b2074696d65000000000000602082015250565b60006109b4603a83610580565b91506109bf82610958565b604082019050919050565b600060208201905081810360008301526109e3816109a7565b905091905056fea26469706673582212209e678bd0d1ee0dc529271b730791bf97f21d792e6ce0ecd650227b69d7999ca564736f6c63430008090033",
  "linkReferences": {},
  "deployedLinkReferences": {}
}