{
  "_format": "hh-sol-artifact-1",
  "contractName": "SmartBond",
  "sourceName": "contracts/SmartBond.sol",
  "abi": [
    {
      "inputs": [
        {
          "internalType": "string",
          "name": "_issuerName",
          "type": "string"
        },
        {
          "internalType": "address payable",
          "name": "_issuerAddress",
          "type": "address"
        },
        {
          "internalType": "uint256",
          "name": "_maturityDate",
          "type": "uint256"
        },
        {
          "internalType": "string",
          "name": "_ownerName",
          "type": "string"
        },
        {
          "internalType": "uint256",
          "name": "_faceValue",
          "type": "uint256"
        },
        {
          "internalType": "enum SmartBond.PaymentFrequency",
          "name": "_paymentFrequency",
          "type": "uint8"
        },
        {
          "internalType": "uint256",
          "name": "_interestRate",
          "type": "uint256"
        },
        {
          "internalType": "address",
          "name": "_priceFeedAddress",
          "type": "address"
        }
      ],
      "stateMutability": "payable",
      "type": "constructor"
    },
    {
      "anonymous": false,
      "inputs": [
        {
          "indexed": false,
          "internalType": "string",
          "name": "newOwnerName",
          "type": "string"
        }
      ],
      "name": "OwnerNameUpdated",
      "type": "event"
    },
    {
      "anonymous": false,
      "inputs": [
        {
          "indexed": false,
          "internalType": "uint256",
          "name": "amount",
          "type": "uint256"
        },
        {
          "indexed": false,
          "internalType": "uint256",
          "name": "when",
          "type": "uint256"
        }
      ],
      "name": "redeemerBond",
      "type": "event"
    },
    {
      "inputs": [],
      "name": "faceValue",
      "outputs": [
        {
          "internalType": "uint256",
          "name": "",
          "type": "uint256"
        }
      ],
      "stateMutability": "view",
      "type": "function"
    },
    {
      "inputs": [],
      "name": "interestRate",
      "outputs": [
        {
          "internalType": "uint256",
          "name": "",
          "type": "uint256"
        }
      ],
      "stateMutability": "view",
      "type": "function"
    },
    {
      "inputs": [],
      "name": "issuerAddress",
      "outputs": [
        {
          "internalType": "address payable",
          "name": "",
          "type": "address"
        }
      ],
      "stateMutability": "view",
      "type": "function"
    },
    {
      "inputs": [],
      "name": "issuerName",
      "outputs": [
        {
          "internalType": "string",
          "name": "",
          "type": "string"
        }
      ],
      "stateMutability": "view",
      "type": "function"
    },
    {
      "inputs": [],
      "name": "maturityDate",
      "outputs": [
        {
          "internalType": "uint256",
          "name": "",
          "type": "uint256"
        }
      ],
      "stateMutability": "view",
      "type": "function"
    },
    {
      "inputs": [],
      "name": "owner",
      "outputs": [
        {
          "internalType": "address payable",
          "name": "",
          "type": "address"
        }
      ],
      "stateMutability": "view",
      "type": "function"
    },
    {
      "inputs": [],
      "name": "ownerName",
      "outputs": [
        {
          "internalType": "string",
          "name": "",
          "type": "string"
        }
      ],
      "stateMutability": "view",
      "type": "function"
    },
    {
      "inputs": [],
      "name": "payInterestRate",
      "outputs": [],
      "stateMutability": "payable",
      "type": "function"
    },
    {
      "inputs": [],
      "name": "paymentFrequency",
      "outputs": [
        {
          "internalType": "enum SmartBond.PaymentFrequency",
          "name": "",
          "type": "uint8"
        }
      ],
      "stateMutability": "view",
      "type": "function"
    },
    {
      "inputs": [],
      "name": "redeemBond",
      "outputs": [],
      "stateMutability": "payable",
      "type": "function"
    },
    {
      "inputs": [],
      "name": "signBond",
      "outputs": [],
      "stateMutability": "payable",
      "type": "function"
    }
  ],
  "bytecode": "0x6080604052604051620012ef380380620012ef83398181016040528101906200002991906200050d565b8542106200006e576040517f08c379a000000000000000000000000000000000000000000000000000000000815260040162000065906200069b565b60405180910390fd5b8560028190555033600360006101000a81548173ffffffffffffffffffffffffffffffffffffffff021916908373ffffffffffffffffffffffffffffffffffffffff1602179055508460049080519060200190620000ce929190620001b3565b508760009080519060200190620000e7929190620001b3565b508360058190555082600660006101000a81548160ff02191690836001811115620001175762000116620006bd565b5b02179055508160078190555086600160006101000a81548173ffffffffffffffffffffffffffffffffffffffff021916908373ffffffffffffffffffffffffffffffffffffffff16021790555080600860006101000a81548173ffffffffffffffffffffffffffffffffffffffff021916908373ffffffffffffffffffffffffffffffffffffffff160217905550505050505050505062000751565b828054620001c1906200071b565b90600052602060002090601f016020900481019282620001e5576000855562000231565b82601f106200020057805160ff191683800117855562000231565b8280016001018555821562000231579182015b828111156200023057825182559160200191906001019062000213565b5b50905062000240919062000244565b5090565b5b808211156200025f57600081600090555060010162000245565b5090565b6000604051905090565b600080fd5b600080fd5b600080fd5b600080fd5b6000601f19601f8301169050919050565b7f4e487b7100000000000000000000000000000000000000000000000000000000600052604160045260246000fd5b620002cc8262000281565b810181811067ffffffffffffffff82111715620002ee57620002ed62000292565b5b80604052505050565b60006200030362000263565b9050620003118282620002c1565b919050565b600067ffffffffffffffff82111562000334576200033362000292565b5b6200033f8262000281565b9050602081019050919050565b60005b838110156200036c5780820151818401526020810190506200034f565b838111156200037c576000848401525b50505050565b600062000399620003938462000316565b620002f7565b905082815260208101848484011115620003b857620003b76200027c565b5b620003c58482856200034c565b509392505050565b600082601f830112620003e557620003e462000277565b5b8151620003f784826020860162000382565b91505092915050565b600073ffffffffffffffffffffffffffffffffffffffff82169050919050565b60006200042d8262000400565b9050919050565b6200043f8162000420565b81146200044b57600080fd5b50565b6000815190506200045f8162000434565b92915050565b6000819050919050565b6200047a8162000465565b81146200048657600080fd5b50565b6000815190506200049a816200046f565b92915050565b60028110620004ae57600080fd5b50565b600081519050620004c281620004a0565b92915050565b6000620004d58262000400565b9050919050565b620004e781620004c8565b8114620004f357600080fd5b50565b6000815190506200050781620004dc565b92915050565b600080600080600080600080610100898b0312156200053157620005306200026d565b5b600089015167ffffffffffffffff81111562000552576200055162000272565b5b620005608b828c01620003cd565b9850506020620005738b828c016200044e565b9750506040620005868b828c0162000489565b965050606089015167ffffffffffffffff811115620005aa57620005a962000272565b5b620005b88b828c01620003cd565b9550506080620005cb8b828c0162000489565b94505060a0620005de8b828c01620004b1565b93505060c0620005f18b828c0162000489565b92505060e0620006048b828c01620004f6565b9150509295985092959890939650565b600082825260208201905092915050565b7f556e6c6f636b2074696d652073686f756c6420626520696e207468652066757460008201527f7572650000000000000000000000000000000000000000000000000000000000602082015250565b60006200068360238362000614565b9150620006908262000625565b604082019050919050565b60006020820190508181036000830152620006b68162000674565b9050919050565b7f4e487b7100000000000000000000000000000000000000000000000000000000600052602160045260246000fd5b7f4e487b7100000000000000000000000000000000000000000000000000000000600052602260045260246000fd5b600060028204905060018216806200073457607f821691505b602082108114156200074b576200074a620006ec565b5b50919050565b610b8e80620007616000396000f3fe60806040526004361061009c5760003560e01c806365ac23201161006457806365ac2320146101155780637c3a00fd146101405780638da5cb5b1461016b5780638e58931514610196578063a63234e0146101c1578063d59624b4146101ec5761009c565b80630128bafa146100a15780632c27a115146100ab5780632e9868f8146100b557806344fd9caa146100e05780635049b2781461010b575b600080fd5b6100a9610217565b005b6100b36102a0565b005b3480156100c157600080fd5b506100ca61032c565b6040516100d79190610711565b60405180910390f35b3480156100ec57600080fd5b506100f56103ba565b604051610102919061074c565b60405180910390f35b6101136103c0565b005b34801561012157600080fd5b5061012a610464565b6040516101379190610711565b60405180910390f35b34801561014c57600080fd5b506101556104f2565b604051610162919061074c565b60405180910390f35b34801561017757600080fd5b506101806104f8565b60405161018d91906107a8565b60405180910390f35b3480156101a257600080fd5b506101ab61051e565b6040516101b8919061083a565b60405180910390f35b3480156101cd57600080fd5b506101d6610531565b6040516101e391906107a8565b60405180910390f35b3480156101f857600080fd5b50610201610557565b60405161020e919061074c565b60405180910390f35b600061022161055d565b905060006102316005548361060d565b9050600160009054906101000a900473ffffffffffffffffffffffffffffffffffffffff1673ffffffffffffffffffffffffffffffffffffffff166108fc829081150290604051600060405180830381858888f1935050505015801561029b573d6000803e3d6000fd5b505050565b600060646007546005546102b49190610884565b6102be919061090d565b9050600360009054906101000a900473ffffffffffffffffffffffffffffffffffffffff1673ffffffffffffffffffffffffffffffffffffffff166108fc829081150290604051600060405180830381858888f19350505050158015610328573d6000803e3d6000fd5b5050565b600080546103399061096d565b80601f01602080910402602001604051908101604052809291908181526020018280546103659061096d565b80156103b25780601f10610387576101008083540402835291602001916103b2565b820191906000526020600020905b81548152906001019060200180831161039557829003601f168201915b505050505081565b60055481565b7f3b98c3d0626a6b57c9d4c729e745dc7b8b846436ae81b9d3b4ac4f009787c35747426040516103f192919061099f565b60405180910390a1600360009054906101000a900473ffffffffffffffffffffffffffffffffffffffff1673ffffffffffffffffffffffffffffffffffffffff166108fc479081150290604051600060405180830381858888f19350505050158015610461573d6000803e3d6000fd5b50565b600480546104719061096d565b80601f016020809104026020016040519081016040528092919081815260200182805461049d9061096d565b80156104ea5780601f106104bf576101008083540402835291602001916104ea565b820191906000526020600020905b8154815290600101906020018083116104cd57829003601f168201915b505050505081565b60075481565b600360009054906101000a900473ffffffffffffffffffffffffffffffffffffffff1681565b600660009054906101000a900460ff1681565b600160009054906101000a900473ffffffffffffffffffffffffffffffffffffffff1681565b60025481565b600080600860009054906101000a900473ffffffffffffffffffffffffffffffffffffffff1673ffffffffffffffffffffffffffffffffffffffff1663feaf968c6040518163ffffffff1660e01b815260040160a06040518083038186803b1580156105c857600080fd5b505afa1580156105dc573d6000803e3d6000fd5b505050506040513d601f19601f820116820180604052508101906106009190610a71565b5050509150508091505090565b6000808213610651576040517f08c379a000000000000000000000000000000000000000000000000000000000815260040161064890610b38565b60405180910390fd5b81670de0b6b3a7640000846106669190610884565b610670919061090d565b905092915050565b600081519050919050565b600082825260208201905092915050565b60005b838110156106b2578082015181840152602081019050610697565b838111156106c1576000848401525b50505050565b6000601f19601f8301169050919050565b60006106e382610678565b6106ed8185610683565b93506106fd818560208601610694565b610706816106c7565b840191505092915050565b6000602082019050818103600083015261072b81846106d8565b905092915050565b6000819050919050565b61074681610733565b82525050565b6000602082019050610761600083018461073d565b92915050565b600073ffffffffffffffffffffffffffffffffffffffff82169050919050565b600061079282610767565b9050919050565b6107a281610787565b82525050565b60006020820190506107bd6000830184610799565b92915050565b7f4e487b7100000000000000000000000000000000000000000000000000000000600052602160045260246000fd5b60028110610803576108026107c3565b5b50565b6000819050610814826107f2565b919050565b600061082482610806565b9050919050565b61083481610819565b82525050565b600060208201905061084f600083018461082b565b92915050565b7f4e487b7100000000000000000000000000000000000000000000000000000000600052601160045260246000fd5b600061088f82610733565b915061089a83610733565b9250817fffffffffffffffffffffffffffffffffffffffffffffffffffffffffffffffff04831182151516156108d3576108d2610855565b5b828202905092915050565b7f4e487b7100000000000000000000000000000000000000000000000000000000600052601260045260246000fd5b600061091882610733565b915061092383610733565b925082610933576109326108de565b5b828204905092915050565b7f4e487b7100000000000000000000000000000000000000000000000000000000600052602260045260246000fd5b6000600282049050600182168061098557607f821691505b602082108114156109995761099861093e565b5b50919050565b60006040820190506109b4600083018561073d565b6109c1602083018461073d565b9392505050565b600080fd5b600069ffffffffffffffffffff82169050919050565b6109ec816109cd565b81146109f757600080fd5b50565b600081519050610a09816109e3565b92915050565b6000819050919050565b610a2281610a0f565b8114610a2d57600080fd5b50565b600081519050610a3f81610a19565b92915050565b610a4e81610733565b8114610a5957600080fd5b50565b600081519050610a6b81610a45565b92915050565b600080600080600060a08688031215610a8d57610a8c6109c8565b5b6000610a9b888289016109fa565b9550506020610aac88828901610a30565b9450506040610abd88828901610a5c565b9350506060610ace88828901610a5c565b9250506080610adf888289016109fa565b9150509295509295909350565b7f496e76616c696420455448207072696365000000000000000000000000000000600082015250565b6000610b22601183610683565b9150610b2d82610aec565b602082019050919050565b60006020820190508181036000830152610b5181610b15565b905091905056fea2646970667358221220fbf3d93a7c4bb121f2eaf8964745e117f4c6ed64bc26422cd95f7e477788ddea64736f6c63430008090033",
  "linkReferences": {},
  "deployedLinkReferences": {}
}