{
  "_format": "hh-sol-artifact-1",
  "contractName": "SmartBond",
  "sourceName": "contracts/SmartBond.sol",
  "abi": [
    {
      "inputs": [
        {
          "internalType": "uint256",
          "name": "_maturityDate",
          "type": "uint256"
        },
        {
          "internalType": "string",
          "name": "_ownerName",
          "type": "string"
        },
        {
          "internalType": "string",
          "name": "_issuerName",
          "type": "string"
        },
        {
          "internalType": "uint256",
          "name": "_faceValue",
          "type": "uint256"
        },
        {
          "internalType": "enum SmartBond.PaymentFrequency",
          "name": "_paymentFrequency",
          "type": "uint8"
        },
        {
          "internalType": "uint256",
          "name": "_interestRate",
          "type": "uint256"
        }
      ],
      "stateMutability": "payable",
      "type": "constructor"
    },
    {
      "anonymous": false,
      "inputs": [
        {
          "indexed": false,
          "internalType": "string",
          "name": "newOwnerName",
          "type": "string"
        }
      ],
      "name": "OwnerNameUpdated",
      "type": "event"
    },
    {
      "anonymous": false,
      "inputs": [
        {
          "indexed": false,
          "internalType": "uint256",
          "name": "amount",
          "type": "uint256"
        },
        {
          "indexed": false,
          "internalType": "uint256",
          "name": "when",
          "type": "uint256"
        }
      ],
      "name": "redeemerBond",
      "type": "event"
    },
    {
      "inputs": [],
      "name": "faceValue",
      "outputs": [
        {
          "internalType": "uint256",
          "name": "",
          "type": "uint256"
        }
      ],
      "stateMutability": "view",
      "type": "function"
    },
    {
      "inputs": [],
      "name": "interestRate",
      "outputs": [
        {
          "internalType": "uint256",
          "name": "",
          "type": "uint256"
        }
      ],
      "stateMutability": "view",
      "type": "function"
    },
    {
      "inputs": [],
      "name": "issuerName",
      "outputs": [
        {
          "internalType": "string",
          "name": "",
          "type": "string"
        }
      ],
      "stateMutability": "view",
      "type": "function"
    },
    {
      "inputs": [],
      "name": "maturityDate",
      "outputs": [
        {
          "internalType": "uint256",
          "name": "",
          "type": "uint256"
        }
      ],
      "stateMutability": "view",
      "type": "function"
    },
    {
      "inputs": [],
      "name": "owner",
      "outputs": [
        {
          "internalType": "address payable",
          "name": "",
          "type": "address"
        }
      ],
      "stateMutability": "view",
      "type": "function"
    },
    {
      "inputs": [],
      "name": "ownerName",
      "outputs": [
        {
          "internalType": "string",
          "name": "",
          "type": "string"
        }
      ],
      "stateMutability": "view",
      "type": "function"
    },
    {
      "inputs": [],
      "name": "payInterestRate",
      "outputs": [],
      "stateMutability": "payable",
      "type": "function"
    },
    {
      "inputs": [],
      "name": "paymentFrequency",
      "outputs": [
        {
          "internalType": "enum SmartBond.PaymentFrequency",
          "name": "",
          "type": "uint8"
        }
      ],
      "stateMutability": "view",
      "type": "function"
    },
    {
      "inputs": [],
      "name": "redeemBond",
      "outputs": [],
      "stateMutability": "payable",
      "type": "function"
    }
  ],
  "bytecode": "0x608060405260405162000def38038062000def8339818101604052810190620000299190620003df565b8542106200006e576040517f08c379a0000000000000000000000000000000000000000000000000000000008152600401620000659062000540565b60405180910390fd5b8560008190555033600160006101000a81548173ffffffffffffffffffffffffffffffffffffffff021916908373ffffffffffffffffffffffffffffffffffffffff1602179055508460029080519060200190620000ce9291906200012f565b508360039080519060200190620000e79291906200012f565b508260048190555081600560006101000a81548160ff0219169083600181111562000117576200011662000562565b5b021790555080600681905550505050505050620005f6565b8280546200013d90620005c0565b90600052602060002090601f016020900481019282620001615760008555620001ad565b82601f106200017c57805160ff1916838001178555620001ad565b82800160010185558215620001ad579182015b82811115620001ac5782518255916020019190600101906200018f565b5b509050620001bc9190620001c0565b5090565b5b80821115620001db576000816000905550600101620001c1565b5090565b6000604051905090565b600080fd5b600080fd5b6000819050919050565b6200020881620001f3565b81146200021457600080fd5b50565b6000815190506200022881620001fd565b92915050565b600080fd5b600080fd5b6000601f19601f8301169050919050565b7f4e487b7100000000000000000000000000000000000000000000000000000000600052604160045260246000fd5b620002838262000238565b810181811067ffffffffffffffff82111715620002a557620002a462000249565b5b80604052505050565b6000620002ba620001df565b9050620002c8828262000278565b919050565b600067ffffffffffffffff821115620002eb57620002ea62000249565b5b620002f68262000238565b9050602081019050919050565b60005b838110156200032357808201518184015260208101905062000306565b8381111562000333576000848401525b50505050565b6000620003506200034a84620002cd565b620002ae565b9050828152602081018484840111156200036f576200036e62000233565b5b6200037c84828562000303565b509392505050565b600082601f8301126200039c576200039b6200022e565b5b8151620003ae84826020860162000339565b91505092915050565b60028110620003c557600080fd5b50565b600081519050620003d981620003b7565b92915050565b60008060008060008060c08789031215620003ff57620003fe620001e9565b5b60006200040f89828a0162000217565b965050602087015167ffffffffffffffff811115620004335762000432620001ee565b5b6200044189828a0162000384565b955050604087015167ffffffffffffffff811115620004655762000464620001ee565b5b6200047389828a0162000384565b94505060606200048689828a0162000217565b93505060806200049989828a01620003c8565b92505060a0620004ac89828a0162000217565b9150509295509295509295565b600082825260208201905092915050565b7f556e6c6f636b2074696d652073686f756c6420626520696e207468652066757460008201527f7572650000000000000000000000000000000000000000000000000000000000602082015250565b600062000528602383620004b9565b91506200053582620004ca565b604082019050919050565b600060208201905081810360008301526200055b8162000519565b9050919050565b7f4e487b7100000000000000000000000000000000000000000000000000000000600052602160045260246000fd5b7f4e487b7100000000000000000000000000000000000000000000000000000000600052602260045260246000fd5b60006002820490506001821680620005d957607f821691505b60208210811415620005f057620005ef62000591565b5b50919050565b6107e980620006066000396000f3fe6080604052600436106100865760003560e01c806365ac23201161005957806365ac2320146100f55780637c3a00fd146101205780638da5cb5b1461014b5780638e58931514610176578063d59624b4146101a157610086565b80632c27a1151461008b5780632e9868f81461009557806344fd9caa146100c05780635049b278146100eb575b600080fd5b6100936101cc565b005b3480156100a157600080fd5b506100aa610258565b6040516100b791906104fc565b60405180910390f35b3480156100cc57600080fd5b506100d56102e6565b6040516100e29190610537565b60405180910390f35b6100f36102ec565b005b34801561010157600080fd5b5061010a610390565b60405161011791906104fc565b60405180910390f35b34801561012c57600080fd5b5061013561041e565b6040516101429190610537565b60405180910390f35b34801561015757600080fd5b50610160610424565b60405161016d9190610593565b60405180910390f35b34801561018257600080fd5b5061018b61044a565b6040516101989190610625565b60405180910390f35b3480156101ad57600080fd5b506101b661045d565b6040516101c39190610537565b60405180910390f35b600060646006546004546101e0919061066f565b6101ea91906106f8565b9050600160009054906101000a900473ffffffffffffffffffffffffffffffffffffffff1673ffffffffffffffffffffffffffffffffffffffff166108fc829081150290604051600060405180830381858888f19350505050158015610254573d6000803e3d6000fd5b5050565b6003805461026590610758565b80601f016020809104026020016040519081016040528092919081815260200182805461029190610758565b80156102de5780601f106102b3576101008083540402835291602001916102de565b820191906000526020600020905b8154815290600101906020018083116102c157829003601f168201915b505050505081565b60045481565b7f3b98c3d0626a6b57c9d4c729e745dc7b8b846436ae81b9d3b4ac4f009787c357474260405161031d92919061078a565b60405180910390a1600160009054906101000a900473ffffffffffffffffffffffffffffffffffffffff1673ffffffffffffffffffffffffffffffffffffffff166108fc479081150290604051600060405180830381858888f1935050505015801561038d573d6000803e3d6000fd5b50565b6002805461039d90610758565b80601f01602080910402602001604051908101604052809291908181526020018280546103c990610758565b80156104165780601f106103eb57610100808354040283529160200191610416565b820191906000526020600020905b8154815290600101906020018083116103f957829003601f168201915b505050505081565b60065481565b600160009054906101000a900473ffffffffffffffffffffffffffffffffffffffff1681565b600560009054906101000a900460ff1681565b60005481565b600081519050919050565b600082825260208201905092915050565b60005b8381101561049d578082015181840152602081019050610482565b838111156104ac576000848401525b50505050565b6000601f19601f8301169050919050565b60006104ce82610463565b6104d8818561046e565b93506104e881856020860161047f565b6104f1816104b2565b840191505092915050565b6000602082019050818103600083015261051681846104c3565b905092915050565b6000819050919050565b6105318161051e565b82525050565b600060208201905061054c6000830184610528565b92915050565b600073ffffffffffffffffffffffffffffffffffffffff82169050919050565b600061057d82610552565b9050919050565b61058d81610572565b82525050565b60006020820190506105a86000830184610584565b92915050565b7f4e487b7100000000000000000000000000000000000000000000000000000000600052602160045260246000fd5b600281106105ee576105ed6105ae565b5b50565b60008190506105ff826105dd565b919050565b600061060f826105f1565b9050919050565b61061f81610604565b82525050565b600060208201905061063a6000830184610616565b92915050565b7f4e487b7100000000000000000000000000000000000000000000000000000000600052601160045260246000fd5b600061067a8261051e565b91506106858361051e565b9250817fffffffffffffffffffffffffffffffffffffffffffffffffffffffffffffffff04831182151516156106be576106bd610640565b5b828202905092915050565b7f4e487b7100000000000000000000000000000000000000000000000000000000600052601260045260246000fd5b60006107038261051e565b915061070e8361051e565b92508261071e5761071d6106c9565b5b828204905092915050565b7f4e487b7100000000000000000000000000000000000000000000000000000000600052602260045260246000fd5b6000600282049050600182168061077057607f821691505b6020821081141561078457610783610729565b5b50919050565b600060408201905061079f6000830185610528565b6107ac6020830184610528565b939250505056fea2646970667358221220c76b5aaf589b1cd488677b6e379727422b98e4a0bc49a40c0fb2b938341e8dfa64736f6c63430008090033",
  "linkReferences": {},
  "deployedLinkReferences": {}
}