{
  "_format": "hh-sol-artifact-1",
  "contractName": "SmartBond",
  "sourceName": "contracts/SmartBond.sol",
  "abi": [
    {
      "inputs": [
        {
          "internalType": "address payable",
          "name": "_bondholder",
          "type": "address"
        },
        {
          "internalType": "uint256",
          "name": "_faceValue",
          "type": "uint256"
        },
        {
          "internalType": "uint256",
          "name": "_duration",
          "type": "uint256"
        },
        {
          "internalType": "uint256",
          "name": "_interestRate",
          "type": "uint256"
        }
      ],
      "stateMutability": "payable",
      "type": "constructor"
    },
    {
      "inputs": [],
      "name": "bondholder",
      "outputs": [
        {
          "internalType": "address payable",
          "name": "",
          "type": "address"
        }
      ],
      "stateMutability": "view",
      "type": "function"
    },
    {
      "inputs": [],
      "name": "duration",
      "outputs": [
        {
          "internalType": "uint256",
          "name": "",
          "type": "uint256"
        }
      ],
      "stateMutability": "view",
      "type": "function"
    },
    {
      "inputs": [],
      "name": "faceValue",
      "outputs": [
        {
          "internalType": "uint256",
          "name": "",
          "type": "uint256"
        }
      ],
      "stateMutability": "view",
      "type": "function"
    },
    {
      "inputs": [],
      "name": "interestRate",
      "outputs": [
        {
          "internalType": "uint256",
          "name": "",
          "type": "uint256"
        }
      ],
      "stateMutability": "view",
      "type": "function"
    },
    {
      "inputs": [],
      "name": "issuer",
      "outputs": [
        {
          "internalType": "address payable",
          "name": "",
          "type": "address"
        }
      ],
      "stateMutability": "view",
      "type": "function"
    },
    {
      "inputs": [],
      "name": "maturityDate",
      "outputs": [
        {
          "internalType": "uint256",
          "name": "",
          "type": "uint256"
        }
      ],
      "stateMutability": "view",
      "type": "function"
    },
    {
      "inputs": [],
      "name": "pay",
      "outputs": [],
      "stateMutability": "payable",
      "type": "function"
    },
    {
      "inputs": [],
      "name": "payInterest",
      "outputs": [],
      "stateMutability": "payable",
      "type": "function"
    },
    {
      "inputs": [],
      "name": "redeemBond",
      "outputs": [],
      "stateMutability": "payable",
      "type": "function"
    }
  ],
  "bytecode": "0x608060405260405162000e8638038062000e86833981810160405281019062000029919062000184565b336000806101000a81548173ffffffffffffffffffffffffffffffffffffffff021916908373ffffffffffffffffffffffffffffffffffffffff16021790555083600160006101000a81548173ffffffffffffffffffffffffffffffffffffffff021916908373ffffffffffffffffffffffffffffffffffffffff160217905550826002819055508160058190555060055442620000c8919062000225565b600381905550806004819055505050505062000282565b600080fd5b600073ffffffffffffffffffffffffffffffffffffffff82169050919050565b60006200011182620000e4565b9050919050565b620001238162000104565b81146200012f57600080fd5b50565b600081519050620001438162000118565b92915050565b6000819050919050565b6200015e8162000149565b81146200016a57600080fd5b50565b6000815190506200017e8162000153565b92915050565b60008060008060808587031215620001a157620001a0620000df565b5b6000620001b18782880162000132565b9450506020620001c4878288016200016d565b9350506040620001d7878288016200016d565b9250506060620001ea878288016200016d565b91505092959194509250565b7f4e487b7100000000000000000000000000000000000000000000000000000000600052601160045260246000fd5b6000620002328262000149565b91506200023f8362000149565b9250827fffffffffffffffffffffffffffffffffffffffffffffffffffffffffffffffff03821115620002775762000276620001f6565b5b828201905092915050565b610bf480620002926000396000f3fe6080604052600436106100865760003560e01c806344fd9caa1161005957806344fd9caa146101165780635049b278146101415780637c3a00fd1461014b578063a15a211c14610176578063d59624b41461018057610086565b80630d5cca4d1461008b5780630fb5a6b4146100b65780631b9265b8146100e15780631d143848146100eb575b600080fd5b34801561009757600080fd5b506100a06101ab565b6040516100ad91906107ed565b60405180910390f35b3480156100c257600080fd5b506100cb6101d1565b6040516100d89190610821565b60405180910390f35b6100e96101d7565b005b3480156100f757600080fd5b506101006103c4565b60405161010d91906107ed565b60405180910390f35b34801561012257600080fd5b5061012b6103e8565b6040516101389190610821565b60405180910390f35b6101496103ee565b005b34801561015757600080fd5b506101606105dc565b60405161016d9190610821565b60405180910390f35b61017e6105e2565b005b34801561018c57600080fd5b506101956107a6565b6040516101a29190610821565b60405180910390f35b600160009054906101000a900473ffffffffffffffffffffffffffffffffffffffff1681565b60055481565b600160009054906101000a900473ffffffffffffffffffffffffffffffffffffffff168073ffffffffffffffffffffffffffffffffffffffff163373ffffffffffffffffffffffffffffffffffffffff1614610268576040517f08c379a000000000000000000000000000000000000000000000000000000000815260040161025f90610899565b60405180910390fd5b4760025411156102ad576040517f08c379a00000000000000000000000000000000000000000000000000000000081526004016102a49061092b565b60405180910390fd5b60025434146102f1576040517f08c379a00000000000000000000000000000000000000000000000000000000081526004016102e890610997565b60405180910390fd5b60008060009054906101000a900473ffffffffffffffffffffffffffffffffffffffff1673ffffffffffffffffffffffffffffffffffffffff1660025460405161033a906109e8565b60006040518083038185875af1925050503d8060008114610377576040519150601f19603f3d011682016040523d82523d6000602084013e61037c565b606091505b50509050806103c0576040517f08c379a00000000000000000000000000000000000000000000000000000000081526004016103b790610a49565b60405180910390fd5b5050565b60008054906101000a900473ffffffffffffffffffffffffffffffffffffffff1681565b60025481565b600160009054906101000a900473ffffffffffffffffffffffffffffffffffffffff168073ffffffffffffffffffffffffffffffffffffffff163373ffffffffffffffffffffffffffffffffffffffff161461047f576040517f08c379a000000000000000000000000000000000000000000000000000000000815260040161047690610899565b60405180910390fd5b60025434146104c3576040517f08c379a00000000000000000000000000000000000000000000000000000000081526004016104ba90610997565b60405180910390fd5b600354421015610508576040517f08c379a00000000000000000000000000000000000000000000000000000000081526004016104ff90610ab5565b60405180910390fd5b6000600160009054906101000a900473ffffffffffffffffffffffffffffffffffffffff1673ffffffffffffffffffffffffffffffffffffffff16600254604051610552906109e8565b60006040518083038185875af1925050503d806000811461058f576040519150601f19603f3d011682016040523d82523d6000602084013e610594565b606091505b50509050806105d8576040517f08c379a00000000000000000000000000000000000000000000000000000000081526004016105cf90610a49565b60405180910390fd5b5050565b60045481565b60008054906101000a900473ffffffffffffffffffffffffffffffffffffffff168073ffffffffffffffffffffffffffffffffffffffff163373ffffffffffffffffffffffffffffffffffffffff1614610671576040517f08c379a000000000000000000000000000000000000000000000000000000000815260040161066890610899565b60405180910390fd5b600060646004546002546106859190610b04565b61068f9190610b8d565b90508034146106d3576040517f08c379a00000000000000000000000000000000000000000000000000000000081526004016106ca90610997565b60405180910390fd5b6000600160009054906101000a900473ffffffffffffffffffffffffffffffffffffffff1673ffffffffffffffffffffffffffffffffffffffff168260405161071b906109e8565b60006040518083038185875af1925050503d8060008114610758576040519150601f19603f3d011682016040523d82523d6000602084013e61075d565b606091505b50509050806107a1576040517f08c379a000000000000000000000000000000000000000000000000000000000815260040161079890610a49565b60405180910390fd5b505050565b60035481565b600073ffffffffffffffffffffffffffffffffffffffff82169050919050565b60006107d7826107ac565b9050919050565b6107e7816107cc565b82525050565b600060208201905061080260008301846107de565b92915050565b6000819050919050565b61081b81610808565b82525050565b60006020820190506108366000830184610812565b92915050565b600082825260208201905092915050565b7f2253656e646572206e6f7420617574686f72697a656421000000000000000000600082015250565b600061088360178361083c565b915061088e8261084d565b602082019050919050565b600060208201905081810360008301526108b281610876565b9050919050565b7f746865206661636556616c756520697320686967686572207468616e2074686560008201527f2062616c616e6365000000000000000000000000000000000000000000000000602082015250565b600061091560288361083c565b9150610920826108b9565b604082019050919050565b6000602082019050818103600083015261094481610908565b9050919050565b7f496e636f7272656374207061796d656e7420616d6f756e740000000000000000600082015250565b600061098160188361083c565b915061098c8261094b565b602082019050919050565b600060208201905081810360008301526109b081610974565b9050919050565b600081905092915050565b50565b60006109d26000836109b7565b91506109dd826109c2565b600082019050919050565b60006109f3826109c5565b9150819050919050565b7f5061796d656e74206661696c6564000000000000000000000000000000000000600082015250565b6000610a33600e8361083c565b9150610a3e826109fd565b602082019050919050565b60006020820190508181036000830152610a6281610a26565b9050919050565b7f426f6e6420686173206e6f74206d617475726564207965742e00000000000000600082015250565b6000610a9f60198361083c565b9150610aaa82610a69565b602082019050919050565b60006020820190508181036000830152610ace81610a92565b9050919050565b7f4e487b7100000000000000000000000000000000000000000000000000000000600052601160045260246000fd5b6000610b0f82610808565b9150610b1a83610808565b9250817fffffffffffffffffffffffffffffffffffffffffffffffffffffffffffffffff0483118215151615610b5357610b52610ad5565b5b828202905092915050565b7f4e487b7100000000000000000000000000000000000000000000000000000000600052601260045260246000fd5b6000610b9882610808565b9150610ba383610808565b925082610bb357610bb2610b5e565b5b82820490509291505056fea2646970667358221220b866d5e6ce97596d2c2aba970de3fac63f0e6f9de7ef4d51bb5549f850c2518364736f6c63430008090033",
  "linkReferences": {},
  "deployedLinkReferences": {}
}